{
  "_format": "hh-sol-artifact-1",
  "contractName": "MujibNFT",
  "sourceName": "contracts/MujibNFT.sol",
  "abi": [
    {
      "inputs": [],
      "stateMutability": "payable",
      "type": "constructor"
    },
    {
      "anonymous": false,
      "inputs": [
        {
          "indexed": true,
          "internalType": "address",
          "name": "owner",
          "type": "address"
        },
        {
          "indexed": true,
          "internalType": "address",
          "name": "approved",
          "type": "address"
        },
        {
          "indexed": true,
          "internalType": "uint256",
          "name": "tokenId",
          "type": "uint256"
        }
      ],
      "name": "Approval",
      "type": "event"
    },
    {
      "anonymous": false,
      "inputs": [
        {
          "indexed": true,
          "internalType": "address",
          "name": "owner",
          "type": "address"
        },
        {
          "indexed": true,
          "internalType": "address",
          "name": "operator",
          "type": "address"
        },
        {
          "indexed": false,
          "internalType": "bool",
          "name": "approved",
          "type": "bool"
        }
      ],
      "name": "ApprovalForAll",
      "type": "event"
    },
    {
      "anonymous": false,
      "inputs": [
        {
          "indexed": true,
          "internalType": "address",
          "name": "previousOwner",
          "type": "address"
        },
        {
          "indexed": true,
          "internalType": "address",
          "name": "newOwner",
          "type": "address"
        }
      ],
      "name": "OwnershipTransferred",
      "type": "event"
    },
    {
      "anonymous": false,
      "inputs": [
        {
          "indexed": true,
          "internalType": "address",
          "name": "from",
          "type": "address"
        },
        {
          "indexed": true,
          "internalType": "address",
          "name": "to",
          "type": "address"
        },
        {
          "indexed": true,
          "internalType": "uint256",
          "name": "tokenId",
          "type": "uint256"
        }
      ],
      "name": "Transfer",
      "type": "event"
    },
    {
      "inputs": [
        {
          "internalType": "address",
          "name": "to",
          "type": "address"
        },
        {
          "internalType": "uint256",
          "name": "tokenId",
          "type": "uint256"
        }
      ],
      "name": "approve",
      "outputs": [],
      "stateMutability": "nonpayable",
      "type": "function"
    },
    {
      "inputs": [
        {
          "internalType": "address",
          "name": "owner",
          "type": "address"
        }
      ],
      "name": "balanceOf",
      "outputs": [
        {
          "internalType": "uint256",
          "name": "",
          "type": "uint256"
        }
      ],
      "stateMutability": "view",
      "type": "function"
    },
    {
      "inputs": [
        {
          "internalType": "uint256",
          "name": "tokenId",
          "type": "uint256"
        }
      ],
      "name": "getApproved",
      "outputs": [
        {
          "internalType": "address",
          "name": "",
          "type": "address"
        }
      ],
      "stateMutability": "view",
      "type": "function"
    },
    {
      "inputs": [
        {
          "internalType": "address",
          "name": "owner",
          "type": "address"
        },
        {
          "internalType": "address",
          "name": "operator",
          "type": "address"
        }
      ],
      "name": "isApprovedForAll",
      "outputs": [
        {
          "internalType": "bool",
          "name": "",
          "type": "bool"
        }
      ],
      "stateMutability": "view",
      "type": "function"
    },
    {
      "inputs": [],
      "name": "isPublicMintEnabled",
      "outputs": [
        {
          "internalType": "bool",
          "name": "",
          "type": "bool"
        }
      ],
      "stateMutability": "view",
      "type": "function"
    },
    {
      "inputs": [],
      "name": "maxPerWallet",
      "outputs": [
        {
          "internalType": "uint256",
          "name": "",
          "type": "uint256"
        }
      ],
      "stateMutability": "view",
      "type": "function"
    },
    {
      "inputs": [],
      "name": "maxSupply",
      "outputs": [
        {
          "internalType": "uint256",
          "name": "",
          "type": "uint256"
        }
      ],
      "stateMutability": "view",
      "type": "function"
    },
    {
      "inputs": [
        {
          "internalType": "uint256",
          "name": "quantity_",
          "type": "uint256"
        }
      ],
      "name": "mint",
      "outputs": [],
      "stateMutability": "payable",
      "type": "function"
    },
    {
      "inputs": [],
      "name": "mintPrice",
      "outputs": [
        {
          "internalType": "uint256",
          "name": "",
          "type": "uint256"
        }
      ],
      "stateMutability": "view",
      "type": "function"
    },
    {
      "inputs": [],
      "name": "name",
      "outputs": [
        {
          "internalType": "string",
          "name": "",
          "type": "string"
        }
      ],
      "stateMutability": "view",
      "type": "function"
    },
    {
      "inputs": [],
      "name": "owner",
      "outputs": [
        {
          "internalType": "address",
          "name": "",
          "type": "address"
        }
      ],
      "stateMutability": "view",
      "type": "function"
    },
    {
      "inputs": [
        {
          "internalType": "uint256",
          "name": "tokenId",
          "type": "uint256"
        }
      ],
      "name": "ownerOf",
      "outputs": [
        {
          "internalType": "address",
          "name": "",
          "type": "address"
        }
      ],
      "stateMutability": "view",
      "type": "function"
    },
    {
      "inputs": [],
      "name": "renounceOwnership",
      "outputs": [],
      "stateMutability": "nonpayable",
      "type": "function"
    },
    {
      "inputs": [
        {
          "internalType": "address",
          "name": "from",
          "type": "address"
        },
        {
          "internalType": "address",
          "name": "to",
          "type": "address"
        },
        {
          "internalType": "uint256",
          "name": "tokenId",
          "type": "uint256"
        }
      ],
      "name": "safeTransferFrom",
      "outputs": [],
      "stateMutability": "nonpayable",
      "type": "function"
    },
    {
      "inputs": [
        {
          "internalType": "address",
          "name": "from",
          "type": "address"
        },
        {
          "internalType": "address",
          "name": "to",
          "type": "address"
        },
        {
          "internalType": "uint256",
          "name": "tokenId",
          "type": "uint256"
        },
        {
          "internalType": "bytes",
          "name": "_data",
          "type": "bytes"
        }
      ],
      "name": "safeTransferFrom",
      "outputs": [],
      "stateMutability": "nonpayable",
      "type": "function"
    },
    {
      "inputs": [
        {
          "internalType": "address",
          "name": "operator",
          "type": "address"
        },
        {
          "internalType": "bool",
          "name": "approved",
          "type": "bool"
        }
      ],
      "name": "setApprovalForAll",
      "outputs": [],
      "stateMutability": "nonpayable",
      "type": "function"
    },
    {
      "inputs": [
        {
          "internalType": "string",
          "name": "baseTokenUri_",
          "type": "string"
        }
      ],
      "name": "setBaseToken",
      "outputs": [],
      "stateMutability": "nonpayable",
      "type": "function"
    },
    {
      "inputs": [
        {
          "internalType": "bool",
          "name": "isPublicMintEnabled_",
          "type": "bool"
        }
      ],
      "name": "setIsPublicMintEnabled",
      "outputs": [],
      "stateMutability": "nonpayable",
      "type": "function"
    },
    {
      "inputs": [
        {
          "internalType": "bytes4",
          "name": "interfaceId",
          "type": "bytes4"
        }
      ],
      "name": "supportsInterface",
      "outputs": [
        {
          "internalType": "bool",
          "name": "",
          "type": "bool"
        }
      ],
      "stateMutability": "view",
      "type": "function"
    },
    {
      "inputs": [],
      "name": "symbol",
      "outputs": [
        {
          "internalType": "string",
          "name": "",
          "type": "string"
        }
      ],
      "stateMutability": "view",
      "type": "function"
    },
    {
      "inputs": [
        {
          "internalType": "uint256",
          "name": "tokenId_",
          "type": "uint256"
        }
      ],
      "name": "tokenURI",
      "outputs": [
        {
          "internalType": "string",
          "name": "",
          "type": "string"
        }
      ],
      "stateMutability": "view",
      "type": "function"
    },
    {
      "inputs": [],
      "name": "totalSupply",
      "outputs": [
        {
          "internalType": "uint256",
          "name": "",
          "type": "uint256"
        }
      ],
      "stateMutability": "view",
      "type": "function"
    },
    {
      "inputs": [
        {
          "internalType": "address",
          "name": "from",
          "type": "address"
        },
        {
          "internalType": "address",
          "name": "to",
          "type": "address"
        },
        {
          "internalType": "uint256",
          "name": "tokenId",
          "type": "uint256"
        }
      ],
      "name": "transferFrom",
      "outputs": [],
      "stateMutability": "nonpayable",
      "type": "function"
    },
    {
      "inputs": [
        {
          "internalType": "address",
          "name": "newOwner",
          "type": "address"
        }
      ],
      "name": "transferOwnership",
      "outputs": [],
      "stateMutability": "nonpayable",
      "type": "function"
    },
    {
      "inputs": [
        {
          "internalType": "address",
          "name": "",
          "type": "address"
        }
      ],
      "name": "walletMints",
      "outputs": [
        {
          "internalType": "uint256",
          "name": "",
          "type": "uint256"
        }
      ],
      "stateMutability": "view",
      "type": "function"
    },
    {
      "inputs": [],
      "name": "withdraw",
      "outputs": [],
      "stateMutability": "nonpayable",
      "type": "function"
    }
  ],
  "bytecode": "0x60806040526040518060400160405280600881526020017f4d756a69624e46540000000000000000000000000000000000000000000000008152506040518060400160405280600381526020017f4d4a420000000000000000000000000000000000000000000000000000000000815250816000908051906020019062000088929190620001bf565b508060019080519060200190620000a1929190620001bf565b505050620000c4620000b8620000f160201b60201c565b620000f960201b60201c565b66470de4df82000060078190555060006008819055506103e86009819055506003600a81905550620002d4565b600033905090565b6000600660009054906101000a900473ffffffffffffffffffffffffffffffffffffffff16905081600660006101000a81548173ffffffffffffffffffffffffffffffffffffffff021916908373ffffffffffffffffffffffffffffffffffffffff1602179055508173ffffffffffffffffffffffffffffffffffffffff168173ffffffffffffffffffffffffffffffffffffffff167f8be0079c531659141344cd1fd0a4f28419497f9722a3daafe3b4186f6b6457e060405160405180910390a35050565b828054620001cd906200026f565b90600052602060002090601f016020900481019282620001f157600085556200023d565b82601f106200020c57805160ff19168380011785556200023d565b828001600101855582156200023d579182015b828111156200023c5782518255916020019190600101906200021f565b5b5090506200024c919062000250565b5090565b5b808211156200026b57600081600090555060010162000251565b5090565b600060028204905060018216806200028857607f821691505b602082108114156200029f576200029e620002a5565b5b50919050565b7f4e487b7100000000000000000000000000000000000000000000000000000000600052602260045260246000fd5b6136eb80620002e46000396000f3fe6080604052600436106101815760003560e01c806370a08231116100d1578063b88d4fde1161008a578063dd487eba11610064578063dd487eba1461054f578063e985e9c514610578578063f0293fd3146105b5578063f2fde38b146105f257610181565b8063b88d4fde146104be578063c87b56dd146104e7578063d5abeb011461052457610181565b806370a08231146103cf578063715018a61461040c5780638da5cb5b1461042357806395d89b411461044e578063a0712d6814610479578063a22cb4651461049557610181565b80632373ac221161013e57806342842e0e1161011857806342842e0e14610313578063453c23101461033c5780636352211e146103675780636817c76c146103a457610181565b80632373ac22146102aa57806323b872dd146102d35780633ccfd60b146102fc57610181565b80630116bc2d1461018657806301ffc9a7146101b157806306fdde03146101ee578063081812fc14610219578063095ea7b31461025657806318160ddd1461027f575b600080fd5b34801561019257600080fd5b5061019b61061b565b6040516101a89190612a08565b60405180910390f35b3480156101bd57600080fd5b506101d860048036038101906101d39190612429565b61062e565b6040516101e59190612a08565b60405180910390f35b3480156101fa57600080fd5b50610203610710565b6040516102109190612a23565b60405180910390f35b34801561022557600080fd5b50610240600480360381019061023b91906124c0565b6107a2565b60405161024d91906129a1565b60405180910390f35b34801561026257600080fd5b5061027d600480360381019061027891906123c4565b610827565b005b34801561028b57600080fd5b5061029461093f565b6040516102a19190612ce5565b60405180910390f35b3480156102b657600080fd5b506102d160048036038101906102cc9190612400565b610945565b005b3480156102df57600080fd5b506102fa60048036038101906102f591906122be565b6109de565b005b34801561030857600080fd5b50610311610a3e565b005b34801561031f57600080fd5b5061033a600480360381019061033591906122be565b610b8b565b005b34801561034857600080fd5b50610351610bab565b60405161035e9190612ce5565b60405180910390f35b34801561037357600080fd5b5061038e600480360381019061038991906124c0565b610bb1565b60405161039b91906129a1565b60405180910390f35b3480156103b057600080fd5b506103b9610c63565b6040516103c69190612ce5565b60405180910390f35b3480156103db57600080fd5b506103f660048036038101906103f19190612259565b610c69565b6040516104039190612ce5565b60405180910390f35b34801561041857600080fd5b50610421610d21565b005b34801561042f57600080fd5b50610438610da9565b60405161044591906129a1565b60405180910390f35b34801561045a57600080fd5b50610463610dd3565b6040516104709190612a23565b60405180910390f35b610493600480360381019061048e91906124c0565b610e65565b005b3480156104a157600080fd5b506104bc60048036038101906104b79190612388565b61103c565b005b3480156104ca57600080fd5b506104e560048036038101906104e0919061230d565b611052565b005b3480156104f357600080fd5b5061050e600480360381019061050991906124c0565b6110b4565b60405161051b9190612a23565b60405180910390f35b34801561053057600080fd5b50610539611130565b6040516105469190612ce5565b60405180910390f35b34801561055b57600080fd5b506105766004803603810190610571919061247b565b611136565b005b34801561058457600080fd5b5061059f600480360381019061059a9190612282565b6111c8565b6040516105ac9190612a08565b60405180910390f35b3480156105c157600080fd5b506105dc60048036038101906105d79190612259565b61125c565b6040516105e99190612ce5565b60405180910390f35b3480156105fe57600080fd5b5061061960048036038101906106149190612259565b611274565b005b600b60009054906101000a900460ff1681565b60007f80ac58cd000000000000000000000000000000000000000000000000000000007bffffffffffffffffffffffffffffffffffffffffffffffffffffffff1916827bffffffffffffffffffffffffffffffffffffffffffffffffffffffff191614806106f957507f5b5e139f000000000000000000000000000000000000000000000000000000007bffffffffffffffffffffffffffffffffffffffffffffffffffffffff1916827bffffffffffffffffffffffffffffffffffffffffffffffffffffffff1916145b8061070957506107088261136c565b5b9050919050565b60606000805461071f90612f84565b80601f016020809104026020016040519081016040528092919081815260200182805461074b90612f84565b80156107985780601f1061076d57610100808354040283529160200191610798565b820191906000526020600020905b81548152906001019060200180831161077b57829003601f168201915b5050505050905090565b60006107ad826113d6565b6107ec576040517f08c379a00000000000000000000000000000000000000000000000000000000081526004016107e390612c05565b60405180910390fd5b6004600083815260200190815260200160002060009054906101000a900473ffffffffffffffffffffffffffffffffffffffff169050919050565b600061083282610bb1565b90508073ffffffffffffffffffffffffffffffffffffffff168373ffffffffffffffffffffffffffffffffffffffff1614156108a3576040517f08c379a000000000000000000000000000000000000000000000000000000000815260040161089a90612c65565b60405180910390fd5b8073ffffffffffffffffffffffffffffffffffffffff166108c2611442565b73ffffffffffffffffffffffffffffffffffffffff1614806108f157506108f0816108eb611442565b6111c8565b5b610930576040517f08c379a000000000000000000000000000000000000000000000000000000000815260040161092790612b85565b60405180910390fd5b61093a838361144a565b505050565b60085481565b61094d611442565b73ffffffffffffffffffffffffffffffffffffffff1661096b610da9565b73ffffffffffffffffffffffffffffffffffffffff16146109c1576040517f08c379a00000000000000000000000000000000000000000000000000000000081526004016109b890612c25565b60405180910390fd5b80600b60006101000a81548160ff02191690831515021790555050565b6109ef6109e9611442565b82611503565b610a2e576040517f08c379a0000000000000000000000000000000000000000000000000000000008152600401610a2590612c85565b60405180910390fd5b610a398383836115e1565b505050565b610a46611442565b73ffffffffffffffffffffffffffffffffffffffff16610a64610da9565b73ffffffffffffffffffffffffffffffffffffffff1614610aba576040517f08c379a0000000000000000000000000000000000000000000000000000000008152600401610ab190612c25565b60405180910390fd5b6000600d60009054906101000a900473ffffffffffffffffffffffffffffffffffffffff1673ffffffffffffffffffffffffffffffffffffffff1647604051610b029061298c565b60006040518083038185875af1925050503d8060008114610b3f576040519150601f19603f3d011682016040523d82523d6000602084013e610b44565b606091505b5050905080610b88576040517f08c379a0000000000000000000000000000000000000000000000000000000008152600401610b7f90612ac5565b60405180910390fd5b50565b610ba683838360405180602001604052806000815250611052565b505050565b600a5481565b6000806002600084815260200190815260200160002060009054906101000a900473ffffffffffffffffffffffffffffffffffffffff169050600073ffffffffffffffffffffffffffffffffffffffff168173ffffffffffffffffffffffffffffffffffffffff161415610c5a576040517f08c379a0000000000000000000000000000000000000000000000000000000008152600401610c5190612bc5565b60405180910390fd5b80915050919050565b60075481565b60008073ffffffffffffffffffffffffffffffffffffffff168273ffffffffffffffffffffffffffffffffffffffff161415610cda576040517f08c379a0000000000000000000000000000000000000000000000000000000008152600401610cd190612ba5565b60405180910390fd5b600360008373ffffffffffffffffffffffffffffffffffffffff1673ffffffffffffffffffffffffffffffffffffffff168152602001908152602001600020549050919050565b610d29611442565b73ffffffffffffffffffffffffffffffffffffffff16610d47610da9565b73ffffffffffffffffffffffffffffffffffffffff1614610d9d576040517f08c379a0000000000000000000000000000000000000000000000000000000008152600401610d9490612c25565b60405180910390fd5b610da76000611848565b565b6000600660009054906101000a900473ffffffffffffffffffffffffffffffffffffffff16905090565b606060018054610de290612f84565b80601f0160208091040260200160405190810160405280929190818152602001828054610e0e90612f84565b8015610e5b5780601f10610e3057610100808354040283529160200191610e5b565b820191906000526020600020905b815481529060010190602001808311610e3e57829003601f168201915b5050505050905090565b600b60009054906101000a900460ff16610eb4576040517f08c379a0000000000000000000000000000000000000000000000000000000008152600401610eab90612c45565b60405180910390fd5b60075481610ec29190612e40565b3414610f03576040517f08c379a0000000000000000000000000000000000000000000000000000000008152600401610efa90612b65565b60405180910390fd5b60095481600854610f149190612db9565b1115610f55576040517f08c379a0000000000000000000000000000000000000000000000000000000008152600401610f4c90612ca5565b60405180910390fd5b600a5481600e60003373ffffffffffffffffffffffffffffffffffffffff1673ffffffffffffffffffffffffffffffffffffffff16815260200190815260200160002054610fa39190612db9565b1115610fe4576040517f08c379a0000000000000000000000000000000000000000000000000000000008152600401610fdb90612cc5565b60405180910390fd5b60005b8181101561103857600060016008546110009190612db9565b90506008600081548092919061101590612fe7565b9190505550611024338261190e565b50808061103090612fe7565b915050610fe7565b5050565b61104e611047611442565b838361192c565b5050565b61106361105d611442565b83611503565b6110a2576040517f08c379a000000000000000000000000000000000000000000000000000000000815260040161109990612c85565b60405180910390fd5b6110ae84848484611a99565b50505050565b60606110bf826113d6565b6110fe576040517f08c379a00000000000000000000000000000000000000000000000000000000081526004016110f590612b25565b60405180910390fd5b600c61110983611af5565b60405160200161111a92919061295d565b6040516020818303038152906040529050919050565b60095481565b61113e611442565b73ffffffffffffffffffffffffffffffffffffffff1661115c610da9565b73ffffffffffffffffffffffffffffffffffffffff16146111b2576040517f08c379a00000000000000000000000000000000000000000000000000000000081526004016111a990612c25565b60405180910390fd5b8181600c91906111c392919061209b565b505050565b6000600560008473ffffffffffffffffffffffffffffffffffffffff1673ffffffffffffffffffffffffffffffffffffffff16815260200190815260200160002060008373ffffffffffffffffffffffffffffffffffffffff1673ffffffffffffffffffffffffffffffffffffffff16815260200190815260200160002060009054906101000a900460ff16905092915050565b600e6020528060005260406000206000915090505481565b61127c611442565b73ffffffffffffffffffffffffffffffffffffffff1661129a610da9565b73ffffffffffffffffffffffffffffffffffffffff16146112f0576040517f08c379a00000000000000000000000000000000000000000000000000000000081526004016112e790612c25565b60405180910390fd5b600073ffffffffffffffffffffffffffffffffffffffff168173ffffffffffffffffffffffffffffffffffffffff161415611360576040517f08c379a000000000000000000000000000000000000000000000000000000000815260040161135790612a65565b60405180910390fd5b61136981611848565b50565b60007f01ffc9a7000000000000000000000000000000000000000000000000000000007bffffffffffffffffffffffffffffffffffffffffffffffffffffffff1916827bffffffffffffffffffffffffffffffffffffffffffffffffffffffff1916149050919050565b60008073ffffffffffffffffffffffffffffffffffffffff166002600084815260200190815260200160002060009054906101000a900473ffffffffffffffffffffffffffffffffffffffff1673ffffffffffffffffffffffffffffffffffffffff1614159050919050565b600033905090565b816004600083815260200190815260200160002060006101000a81548173ffffffffffffffffffffffffffffffffffffffff021916908373ffffffffffffffffffffffffffffffffffffffff160217905550808273ffffffffffffffffffffffffffffffffffffffff166114bd83610bb1565b73ffffffffffffffffffffffffffffffffffffffff167f8c5be1e5ebec7d5bd14f71427d1e84f3dd0314c0f7b2291e5b200ac8c7c3b92560405160405180910390a45050565b600061150e826113d6565b61154d576040517f08c379a000000000000000000000000000000000000000000000000000000000815260040161154490612b45565b60405180910390fd5b600061155883610bb1565b90508073ffffffffffffffffffffffffffffffffffffffff168473ffffffffffffffffffffffffffffffffffffffff16148061159a575061159981856111c8565b5b806115d857508373ffffffffffffffffffffffffffffffffffffffff166115c0846107a2565b73ffffffffffffffffffffffffffffffffffffffff16145b91505092915050565b8273ffffffffffffffffffffffffffffffffffffffff1661160182610bb1565b73ffffffffffffffffffffffffffffffffffffffff1614611657576040517f08c379a000000000000000000000000000000000000000000000000000000000815260040161164e90612a85565b60405180910390fd5b600073ffffffffffffffffffffffffffffffffffffffff168273ffffffffffffffffffffffffffffffffffffffff1614156116c7576040517f08c379a00000000000000000000000000000000000000000000000000000000081526004016116be90612ae5565b60405180910390fd5b6116d2838383611ca2565b6116dd60008261144a565b6001600360008573ffffffffffffffffffffffffffffffffffffffff1673ffffffffffffffffffffffffffffffffffffffff168152602001908152602001600020600082825461172d9190612e9a565b925050819055506001600360008473ffffffffffffffffffffffffffffffffffffffff1673ffffffffffffffffffffffffffffffffffffffff16815260200190815260200160002060008282546117849190612db9565b92505081905550816002600083815260200190815260200160002060006101000a81548173ffffffffffffffffffffffffffffffffffffffff021916908373ffffffffffffffffffffffffffffffffffffffff160217905550808273ffffffffffffffffffffffffffffffffffffffff168473ffffffffffffffffffffffffffffffffffffffff167fddf252ad1be2c89b69c2b068fc378daa952ba7f163c4a11628f55a4df523b3ef60405160405180910390a4611843838383611ca7565b505050565b6000600660009054906101000a900473ffffffffffffffffffffffffffffffffffffffff16905081600660006101000a81548173ffffffffffffffffffffffffffffffffffffffff021916908373ffffffffffffffffffffffffffffffffffffffff1602179055508173ffffffffffffffffffffffffffffffffffffffff168173ffffffffffffffffffffffffffffffffffffffff167f8be0079c531659141344cd1fd0a4f28419497f9722a3daafe3b4186f6b6457e060405160405180910390a35050565b611928828260405180602001604052806000815250611cac565b5050565b8173ffffffffffffffffffffffffffffffffffffffff168373ffffffffffffffffffffffffffffffffffffffff16141561199b576040517f08c379a000000000000000000000000000000000000000000000000000000000815260040161199290612b05565b60405180910390fd5b80600560008573ffffffffffffffffffffffffffffffffffffffff1673ffffffffffffffffffffffffffffffffffffffff16815260200190815260200160002060008473ffffffffffffffffffffffffffffffffffffffff1673ffffffffffffffffffffffffffffffffffffffff16815260200190815260200160002060006101000a81548160ff0219169083151502179055508173ffffffffffffffffffffffffffffffffffffffff168373ffffffffffffffffffffffffffffffffffffffff167f17307eab39ab6107e8899845ad3d59bd9653f200f220920489ca2b5937696c3183604051611a8c9190612a08565b60405180910390a3505050565b611aa48484846115e1565b611ab084848484611d07565b611aef576040517f08c379a0000000000000000000000000000000000000000000000000000000008152600401611ae690612a45565b60405180910390fd5b50505050565b60606000821415611b3d576040518060400160405280600181526020017f30000000000000000000000000000000000000000000000000000000000000008152509050611c9d565b600082905060005b60008214611b6f578080611b5890612fe7565b915050600a82611b689190612e0f565b9150611b45565b60008167ffffffffffffffff811115611bb1577f4e487b7100000000000000000000000000000000000000000000000000000000600052604160045260246000fd5b6040519080825280601f01601f191660200182016040528015611be35781602001600182028036833780820191505090505b5090505b60008514611c9657600182611bfc9190612e9a565b9150600a85611c0b9190613030565b6030611c179190612db9565b60f81b818381518110611c53577f4e487b7100000000000000000000000000000000000000000000000000000000600052603260045260246000fd5b60200101907effffffffffffffffffffffffffffffffffffffffffffffffffffffffffffff1916908160001a905350600a85611c8f9190612e0f565b9450611be7565b8093505050505b919050565b505050565b505050565b611cb68383611e9e565b611cc36000848484611d07565b611d02576040517f08c379a0000000000000000000000000000000000000000000000000000000008152600401611cf990612a45565b60405180910390fd5b505050565b6000611d288473ffffffffffffffffffffffffffffffffffffffff16612078565b15611e91578373ffffffffffffffffffffffffffffffffffffffff1663150b7a02611d51611442565b8786866040518563ffffffff1660e01b8152600401611d7394939291906129bc565b602060405180830381600087803b158015611d8d57600080fd5b505af1925050508015611dbe57506040513d601f19601f82011682018060405250810190611dbb9190612452565b60015b611e41573d8060008114611dee576040519150601f19603f3d011682016040523d82523d6000602084013e611df3565b606091505b50600081511415611e39576040517f08c379a0000000000000000000000000000000000000000000000000000000008152600401611e3090612a45565b60405180910390fd5b805181602001fd5b63150b7a0260e01b7bffffffffffffffffffffffffffffffffffffffffffffffffffffffff1916817bffffffffffffffffffffffffffffffffffffffffffffffffffffffff191614915050611e96565b600190505b949350505050565b600073ffffffffffffffffffffffffffffffffffffffff168273ffffffffffffffffffffffffffffffffffffffff161415611f0e576040517f08c379a0000000000000000000000000000000000000000000000000000000008152600401611f0590612be5565b60405180910390fd5b611f17816113d6565b15611f57576040517f08c379a0000000000000000000000000000000000000000000000000000000008152600401611f4e90612aa5565b60405180910390fd5b611f6360008383611ca2565b6001600360008473ffffffffffffffffffffffffffffffffffffffff1673ffffffffffffffffffffffffffffffffffffffff1681526020019081526020016000206000828254611fb39190612db9565b92505081905550816002600083815260200190815260200160002060006101000a81548173ffffffffffffffffffffffffffffffffffffffff021916908373ffffffffffffffffffffffffffffffffffffffff160217905550808273ffffffffffffffffffffffffffffffffffffffff16600073ffffffffffffffffffffffffffffffffffffffff167fddf252ad1be2c89b69c2b068fc378daa952ba7f163c4a11628f55a4df523b3ef60405160405180910390a461207460008383611ca7565b5050565b6000808273ffffffffffffffffffffffffffffffffffffffff163b119050919050565b8280546120a790612f84565b90600052602060002090601f0160209004810192826120c95760008555612110565b82601f106120e257803560ff1916838001178555612110565b82800160010185558215612110579182015b8281111561210f5782358255916020019190600101906120f4565b5b50905061211d9190612121565b5090565b5b8082111561213a576000816000905550600101612122565b5090565b600061215161214c84612d25565b612d00565b90508281526020810184848401111561216957600080fd5b612174848285612f42565b509392505050565b60008135905061218b81613659565b92915050565b6000813590506121a081613670565b92915050565b6000813590506121b581613687565b92915050565b6000815190506121ca81613687565b92915050565b600082601f8301126121e157600080fd5b81356121f184826020860161213e565b91505092915050565b60008083601f84011261220c57600080fd5b8235905067ffffffffffffffff81111561222557600080fd5b60208301915083600182028301111561223d57600080fd5b9250929050565b6000813590506122538161369e565b92915050565b60006020828403121561226b57600080fd5b60006122798482850161217c565b91505092915050565b6000806040838503121561229557600080fd5b60006122a38582860161217c565b92505060206122b48582860161217c565b9150509250929050565b6000806000606084860312156122d357600080fd5b60006122e18682870161217c565b93505060206122f28682870161217c565b925050604061230386828701612244565b9150509250925092565b6000806000806080858703121561232357600080fd5b60006123318782880161217c565b94505060206123428782880161217c565b935050604061235387828801612244565b925050606085013567ffffffffffffffff81111561237057600080fd5b61237c878288016121d0565b91505092959194509250565b6000806040838503121561239b57600080fd5b60006123a98582860161217c565b92505060206123ba85828601612191565b9150509250929050565b600080604083850312156123d757600080fd5b60006123e58582860161217c565b92505060206123f685828601612244565b9150509250929050565b60006020828403121561241257600080fd5b600061242084828501612191565b91505092915050565b60006020828403121561243b57600080fd5b6000612449848285016121a6565b91505092915050565b60006020828403121561246457600080fd5b6000612472848285016121bb565b91505092915050565b6000806020838503121561248e57600080fd5b600083013567ffffffffffffffff8111156124a857600080fd5b6124b4858286016121fa565b92509250509250929050565b6000602082840312156124d257600080fd5b60006124e084828501612244565b91505092915050565b6124f281612ece565b82525050565b61250181612ee0565b82525050565b600061251282612d6b565b61251c8185612d81565b935061252c818560208601612f51565b6125358161311d565b840191505092915050565b600061254b82612d76565b6125558185612d9d565b9350612565818560208601612f51565b61256e8161311d565b840191505092915050565b600061258482612d76565b61258e8185612dae565b935061259e818560208601612f51565b80840191505092915050565b600081546125b781612f84565b6125c18186612dae565b945060018216600081146125dc57600181146125ed57612620565b60ff19831686528186019350612620565b6125f685612d56565b60005b83811015612618578154818901526001820191506020810190506125f9565b838801955050505b50505092915050565b6000612636603283612d9d565b91506126418261312e565b604082019050919050565b6000612659602683612d9d565b91506126648261317d565b604082019050919050565b600061267c602583612d9d565b9150612687826131cc565b604082019050919050565b600061269f601c83612d9d565b91506126aa8261321b565b602082019050919050565b60006126c2600f83612d9d565b91506126cd82613244565b602082019050919050565b60006126e5602483612d9d565b91506126f08261326d565b604082019050919050565b6000612708601983612d9d565b9150612713826132bc565b602082019050919050565b600061272b601483612d9d565b9150612736826132e5565b602082019050919050565b600061274e602c83612d9d565b91506127598261330e565b604082019050919050565b6000612771601283612d9d565b915061277c8261335d565b602082019050919050565b6000612794603883612d9d565b915061279f82613386565b604082019050919050565b60006127b7602a83612d9d565b91506127c2826133d5565b604082019050919050565b60006127da602983612d9d565b91506127e582613424565b604082019050919050565b60006127fd602083612d9d565b915061280882613473565b602082019050919050565b6000612820602c83612d9d565b915061282b8261349c565b604082019050919050565b6000612843600583612dae565b915061284e826134eb565b600582019050919050565b6000612866602083612d9d565b915061287182613514565b602082019050919050565b6000612889601383612d9d565b91506128948261353d565b602082019050919050565b60006128ac602183612d9d565b91506128b782613566565b604082019050919050565b60006128cf600083612d92565b91506128da826135b5565b600082019050919050565b60006128f2603183612d9d565b91506128fd826135b8565b604082019050919050565b6000612915601283612d9d565b915061292082613607565b602082019050919050565b6000612938601683612d9d565b915061294382613630565b602082019050919050565b61295781612f38565b82525050565b600061296982856125aa565b91506129758284612579565b915061298082612836565b91508190509392505050565b6000612997826128c2565b9150819050919050565b60006020820190506129b660008301846124e9565b92915050565b60006080820190506129d160008301876124e9565b6129de60208301866124e9565b6129eb604083018561294e565b81810360608301526129fd8184612507565b905095945050505050565b6000602082019050612a1d60008301846124f8565b92915050565b60006020820190508181036000830152612a3d8184612540565b905092915050565b60006020820190508181036000830152612a5e81612629565b9050919050565b60006020820190508181036000830152612a7e8161264c565b9050919050565b60006020820190508181036000830152612a9e8161266f565b9050919050565b60006020820190508181036000830152612abe81612692565b9050919050565b60006020820190508181036000830152612ade816126b5565b9050919050565b60006020820190508181036000830152612afe816126d8565b9050919050565b60006020820190508181036000830152612b1e816126fb565b9050919050565b60006020820190508181036000830152612b3e8161271e565b9050919050565b60006020820190508181036000830152612b5e81612741565b9050919050565b60006020820190508181036000830152612b7e81612764565b9050919050565b60006020820190508181036000830152612b9e81612787565b9050919050565b60006020820190508181036000830152612bbe816127aa565b9050919050565b60006020820190508181036000830152612bde816127cd565b9050919050565b60006020820190508181036000830152612bfe816127f0565b9050919050565b60006020820190508181036000830152612c1e81612813565b9050919050565b60006020820190508181036000830152612c3e81612859565b9050919050565b60006020820190508181036000830152612c5e8161287c565b9050919050565b60006020820190508181036000830152612c7e8161289f565b9050919050565b60006020820190508181036000830152612c9e816128e5565b9050919050565b60006020820190508181036000830152612cbe81612908565b9050919050565b60006020820190508181036000830152612cde8161292b565b9050919050565b6000602082019050612cfa600083018461294e565b92915050565b6000612d0a612d1b565b9050612d168282612fb6565b919050565b6000604051905090565b600067ffffffffffffffff821115612d4057612d3f6130ee565b5b612d498261311d565b9050602081019050919050565b60008190508160005260206000209050919050565b600081519050919050565b600081519050919050565b600082825260208201905092915050565b600081905092915050565b600082825260208201905092915050565b600081905092915050565b6000612dc482612f38565b9150612dcf83612f38565b9250827fffffffffffffffffffffffffffffffffffffffffffffffffffffffffffffffff03821115612e0457612e03613061565b5b828201905092915050565b6000612e1a82612f38565b9150612e2583612f38565b925082612e3557612e34613090565b5b828204905092915050565b6000612e4b82612f38565b9150612e5683612f38565b9250817fffffffffffffffffffffffffffffffffffffffffffffffffffffffffffffffff0483118215151615612e8f57612e8e613061565b5b828202905092915050565b6000612ea582612f38565b9150612eb083612f38565b925082821015612ec357612ec2613061565b5b828203905092915050565b6000612ed982612f18565b9050919050565b60008115159050919050565b60007fffffffff0000000000000000000000000000000000000000000000000000000082169050919050565b600073ffffffffffffffffffffffffffffffffffffffff82169050919050565b6000819050919050565b82818337600083830152505050565b60005b83811015612f6f578082015181840152602081019050612f54565b83811115612f7e576000848401525b50505050565b60006002820490506001821680612f9c57607f821691505b60208210811415612fb057612faf6130bf565b5b50919050565b612fbf8261311d565b810181811067ffffffffffffffff82111715612fde57612fdd6130ee565b5b80604052505050565b6000612ff282612f38565b91507fffffffffffffffffffffffffffffffffffffffffffffffffffffffffffffffff82141561302557613024613061565b5b600182019050919050565b600061303b82612f38565b915061304683612f38565b92508261305657613055613090565b5b828206905092915050565b7f4e487b7100000000000000000000000000000000000000000000000000000000600052601160045260246000fd5b7f4e487b7100000000000000000000000000000000000000000000000000000000600052601260045260246000fd5b7f4e487b7100000000000000000000000000000000000000000000000000000000600052602260045260246000fd5b7f4e487b7100000000000000000000000000000000000000000000000000000000600052604160045260246000fd5b6000601f19601f8301169050919050565b7f4552433732313a207472616e7366657220746f206e6f6e20455243373231526560008201527f63656976657220696d706c656d656e7465720000000000000000000000000000602082015250565b7f4f776e61626c653a206e6577206f776e657220697320746865207a65726f206160008201527f6464726573730000000000000000000000000000000000000000000000000000602082015250565b7f4552433732313a207472616e736665722066726f6d20696e636f72726563742060008201527f6f776e6572000000000000000000000000000000000000000000000000000000602082015250565b7f4552433732313a20746f6b656e20616c7265616479206d696e74656400000000600082015250565b7f5769746864726177206661696c65640000000000000000000000000000000000600082015250565b7f4552433732313a207472616e7366657220746f20746865207a65726f2061646460008201527f7265737300000000000000000000000000000000000000000000000000000000602082015250565b7f4552433732313a20617070726f766520746f2063616c6c657200000000000000600082015250565b7f546f6b656e20646f6573206e6f74206578697374000000000000000000000000600082015250565b7f4552433732313a206f70657261746f7220717565727920666f72206e6f6e657860008201527f697374656e7420746f6b656e0000000000000000000000000000000000000000602082015250565b7f496e76616c6964206d696e742076616c75650000000000000000000000000000600082015250565b7f4552433732313a20617070726f76652063616c6c6572206973206e6f74206f7760008201527f6e6572206e6f7220617070726f76656420666f7220616c6c0000000000000000602082015250565b7f4552433732313a2062616c616e636520717565727920666f7220746865207a6560008201527f726f206164647265737300000000000000000000000000000000000000000000602082015250565b7f4552433732313a206f776e657220717565727920666f72206e6f6e657869737460008201527f656e7420746f6b656e0000000000000000000000000000000000000000000000602082015250565b7f4552433732313a206d696e7420746f20746865207a65726f2061646472657373600082015250565b7f4552433732313a20617070726f76656420717565727920666f72206e6f6e657860008201527f697374656e7420746f6b656e0000000000000000000000000000000000000000602082015250565b7f2e6a736f6e000000000000000000000000000000000000000000000000000000600082015250565b7f4f776e61626c653a2063616c6c6572206973206e6f7420746865206f776e6572600082015250565b7f4d696e74696e67206e6f7420656e61626c656400000000000000000000000000600082015250565b7f4552433732313a20617070726f76616c20746f2063757272656e74206f776e6560008201527f7200000000000000000000000000000000000000000000000000000000000000602082015250565b50565b7f4552433732313a207472616e736665722063616c6c6572206973206e6f74206f60008201527f776e6572206e6f7220617070726f766564000000000000000000000000000000602082015250565b7f4d617820737570706c7920726561636865640000000000000000000000000000600082015250565b7f4d6178207065722077616c6c6574207265616368656400000000000000000000600082015250565b61366281612ece565b811461366d57600080fd5b50565b61367981612ee0565b811461368457600080fd5b50565b61369081612eec565b811461369b57600080fd5b50565b6136a781612f38565b81146136b257600080fd5b5056fea2646970667358221220ce47f646270b3226e6913b95da11b8015f592a56ce9865e7628052c4430f65fc64736f6c63430008040033",
  "linkReferences": {},
  "deployedLinkReferences": {}
}